:020000040800F2
:1000000080310020AD2C0008C15C0008812C000864
:10001000812C0008812C0008812C000800000000C1
:100020000000000000000000000000007D25000826
:10003000812C000800000000E92400087D41000830
:10004000E9260008E9260008E9260008E926000854
:10005000E9260008E9260008E9260008E926000844
:10006000E9260008E9260008E9260008E926000834
:10007000E9260008E9260008E9260008E926000824
:10008000E9260008E9260008E9260008E926000814
:10009000E9260008E9260008E9260008E926000804
:1000A000E9260008E9260008E9260008E9260008F4
:1000B000E9260008E9260008E9260008E9260008E4
:1000C000E9260008E9260008E9260008E9260008D4
:1000D000E9260008E9260008E9260008E9260008C4
:1000E000E9260008E9260008E9260008E9260008B4
:1000F000E9260008E9260008E9260008E9260008A4
:10010000E9260008E9260008E9260008E926000893
:10011000E9260008E9260008E9260008E926000883
:10012000E9260008E9260008E9260008E926000873
:10013000E9260008E9260008E9260008E926000863
:10014000E9260008E9260008E9260008E926000853
:10015000E9260008E9260008E9260008E926000843
:10016000E9260008E9260008E9260008E926000833
:10017000E9260008E9260008E9260008E926000823
:10018000E9260008E9260008E9260008E926000813
:10019000E9260008E9260008E9260008E926000803
:0C01A000E9260008E9260008E92600080E
:0401AC00FFFFFFFF53
:1001B0007BB972B90029BEBF00204FF0004106E0B4
:1001C00008BF00281CBF6FF000414FF0FF3000F067
:1001D00057B8ADF1080C6DE904CE002909DB002BFE
:1001E0001ADB00F04FF8DDF804E0DDE9022304B08B
:1001F0007047404261EB4101002B1BDB00F042F8ED
:10020000DDF804E0DDE9022304B0404261EB410186
:10021000524263EB43037047524263EB430300F0E7
:1002200031F8DDF804E0DDE9022304B0404261EB7F
:1002300041017047524263EB430300F023F8DDF8BD
:1002400004E0DDE9022304B0524263EB430370474C
:1002500053B94AB9002908BF00281CBF4FF0FF312D
:100260004FF0FF3000F00CB8ADF1080C6DE904CE92
:1002700000F008F8DDF804E0DDE9022304B070477F
:10028000704700BF2DE9F04786468C460846089E19
:10029000154674461946002B40F0C2808542B2FADA
:1002A00082F245D94AB1C2F1200300FA02FC2EFACB
:1002B00003F3954043EA0C0C94404FEA154EA8B264
:1002C000BCFBFEF8230C0EFB18CC08FB00F943EA3C
:1002D0000C43994528D9EB1808F1FF3704D299450A
:1002E00002D9A8F102072B44A3EB0903A4B2B3FB84
:1002F000FEFC0EFB1C330CFB00F044EA0344A0425E
:1003000014D92C190CF1FF3304D2A04202D9ACF15C
:1003100002032C44241A43EA07401EB1D4400023B0
:1003200034607360BDE8F0874746DDE76346F1E778
:1003300092BB431B01214FEA154EAFB2B3FBFEFC4B
:10034000200C0EFB1C330CFB07F840EA03439845D6
:1003500062D9EB180CF1FF3004D2984502D9ACF108
:1003600002002B44A3EB0803A4B2B3FBFEFC0EFB7C
:100370001C330CFB07F744EA0344A7424ED92C195F
:100380000CF1FF3304D2A74202D9ACF102032C4492
:10039000E41B43EA0040C0E7C2F1200320FA03F166
:1003A000954090402EFA03F303434FEA154EAFB247
:1003B000B1FBFEFC0EFB1C10190C0CFB07F841EA0C
:1003C0000041884504FA02F422D969180CF1FF3083
:1003D00004D2884502D9ACF102002944A1EB0801FE
:1003E0009BB2B1FBFEFC0EFB1C110CFB07F743EAB2
:1003F00001439F420ED9EB180CF1FF3104D29F420A
:1004000002D9ACF102012B44DB1B41EA004192E727
:100410006046E3E76146F7E76046A3E76346B7E770
:10042000834206D916B9002108467BE7C6E900E0F9
:10043000F9E7B3FA83F78FB9834201D3724508D83D
:10044000BEEB020460EB030301209C461EB90021B1
:1004500068E73846FAE7C6E9004CF8E7C7F1200C30
:10046000BB4022FA0CF41C432EFA0CF120FA0CF3D8
:10047000B84001434FEA14490EFA07F5B3FBF9F807
:100480001FFA84FE09FB18300B0C08FB0EFA43EA36
:1004900000439A4502FA07F240D9E31808F1FF3009
:1004A00004D29A4502D9A8F102002344A3EB0A031F
:1004B00089B2B3FBF9F809FB183308FB0EFE41EAD9
:1004C00003418E452CD9611808F1FF3304D28E45C3
:1004D00002D9A8F10203214443EA0040A0FB02989C
:1004E000A1EB0E014145CE46434602D306D14D4510
:1004F00004D2B9EB020E68EB04030138002EA6D03B
:10050000B5EB0E0261EB030101FA0CFC22FA07F3D2
:100510004CEA0303F940C6E9003198E74046C5E7D5
:100520004346D9E7000000002DE9F04FD0E9005321
:1005300089B0CDE904120293838A0393AB680299D0
:100540005B6806AA28469847002838DBDDE9064A9A
:100550001F4FDFF88080A4FB07B207FB0A2758462D
:1005600019A3D3E900233946FFF772FE4FF0FF3994
:10057000D94578EB0703064621D3049B03994FF432
:100580007A725343B3FBF1F35343A3FB04B403FB6D
:100590000A4421460CA3D3E900235846FFF758FE2E
:1005A000D94578EB0404034609D38642AA6806D3EA
:1005B000059900911468029932462846A04709B06F
:1005C000BDE8F08FAFF3008000CA9A3B0000000046
:1005D00040420F00FFC99A3B2DE9F04F9FB0824681
:1005E000039116461C460025307810B9284600F0C5
:1005F00085BD731C2528069306D00399D047002893
:10060000C0F27C85013530E21822002110A805F0E7
:1006100099FB7378252B7DD00023701C98469E464D
:100620009C461F46014610F8012B2B2A00F0A180A2
:1006300000F29880202A00F09F80232A00F09F80FB
:100640002BB19DF8483043F040038DF84830B8F1A5
:10065000000F05D09DF8483043F020038DF8483056
:10066000BEF1000F05D09DF8483043F010038DF81F
:100670004830BCF1000F05D09DF8483043F0080326
:100680008DF848302FB19DF8483043F004038DF8C1
:1006900048309DF8483003F04400442803D16FF3FC
:1006A00086138DF848309DF848302A2A43F080039D
:1006B0008DF848307FD19DF8492042F001024B1C53
:1006C0008DF849201A782E2A9DF849200CBF012167
:1006D000002161F341028DF8492078D15A782A2A05
:1006E0006ED0013300224FF00A0C194611F8010BAD
:1006F000A0F13007092F40F2AD809DF84810149208
:10070000C1F3400040EAD2700A4660F341028DF81E
:1007100048205CE0B21C06928DF84B309DF84930C1
:10072000D90740F1508154F8042B0492002A08DACA
:100730009DF8482042F004028DF84820049A524265
:1007400004925A0740F1478154F8047B002F80F24D
:1007500046819DF849306FF341038DF849304FF0E1
:10076000FF373CE12D2A0DD0302A7FF469AF0123F9
:1007700058E74FF0010C55E74FF0010E52E74FF0EC
:1007800001084FE701274DE70EFB0272303A03469E
:10079000184610F8017BA7F1300CBCF1090FF3D912
:1007A00099428FD09DF848101392D20F62F3410105
:1007B0008DF8481086E70B4600224FF00A0EE7E757
:1007C0009DF8492042F004028DF8492002331A783E
:1007D0006C2A5FD043D8682A49D06A2A63D04C2A51
:1007E00069D013F8012B0693782A8DF84B2000F27C
:1007F000A9806D2A6CD8692A00F2A480572A00F2D9
:100800008480412A04D0A2F14503022B00F29A8091
:100810009DF84A3002F0DF020421A2F1410761F3A2
:1008200002037A429DF849108DF84A307A4162F30A
:10083000C7110A068DF84910CBB200F1C28003F04F
:100840007802182A40F0AC806FF3C6038DF8493067
:1008500000239BE00CFB0202303A0B4645E7742A6A
:1008600025D07A2ABDD19DF8492006210CE05A787E
:10087000682A9DF8492006D1012161F3C6028DF84E
:1008800049200233ADE7022161F3C6028DF8492009
:100890000133A6E75A786C2A9DF8492001D104213A
:1008A000EBE70321F0E79DF849200521ECE79DF8EF
:1008B00049200721E8E7BDF8482022F4F04222F061
:1008C000020242F4804242F00202ADF84820DFE723
:1008D0006E3AD3B201229A4040F282431A429DF806
:1008E000493036D112F0240F5ED1D1072AD59DF8B8
:1008F0004A2003F07803A3F14000032161F30202D0
:1009000043428DF84A20434140E0A2F15801C9B268
:10091000012000FA01F111F4624F7FF479AF40F643
:10092000010319429DF8493019D111F4043F09D04F
:100930009DF84A2060F3020203F07803402B8DF803
:100940004A2085D19DF8483043F001038DF84830A6
:100950007EE79DF84A20022161F30202ECE79DF850
:100960004A10022003F0780360F30201402B8DF857
:100970004A1002BF9DF8481041F001018DF848105F
:10098000632A7FF465AF003B18BF01239DF8482020
:10099000C2F340010B4363F341028DF84820BDE6EA
:1009A00013F0380FCED153E79DF84A20032113F0FE
:1009B000780F61F302028DF84A2014BF012300234F
:1009C000E4E70123E2E79DF94820002AB4BF139A27
:1009D0004FF0FF32B4E69F077FF5C1AE149F0023AE
:1009E000CDE913339DF84A3003F00702042A9DF83D
:1009F000492007D1900705D49DF949100029ACBFC3
:100A000006270D2703F00703012BC2F3C30233D1DE
:100A1000D31E042B04D8DFE803F010464610100064
:100A20002368012A4FEAE371CDE910310BD103F0BD
:100A3000FF0310930023119307E054F8043BD917E8
:100A4000CDE9103102E0022A11D004349DF848307B
:100A50000793990747D0069B03993246504605F005
:100A60009DF80028C0F24A830544069EBCE519B2F1
:100A7000109143F3C033DEE7022B24D1D31E042BA5
:100A800004D8DFE803F0181010181800012A54F8F1
:100A9000043B4FF0000114D0022ACDE91031D5D12A
:100AA0009BB21093D2E7073424F00704F4E8020164
:100AB000CDE91001CAE754F8043B109300231193C9
:100AC000C4E7DBB2BCE7042B08D1073424F00704E9
:100AD000D4E900010834CDE91001B7E7032BB5D103
:100AE00054F8043BDDE79DF84BB0BBF1780FBCD860
:100AF000BBF1570F49D8BBF1250F00F09180BBF136
:100B0000240FB2D9BBF1410F03D0ABF14502022A49
:100B1000ABD8DDE91012002AC0F23681079B1E0710
:100B200000F13581C3F300194FEA4919C2F30A50A5
:100B3000C2F31302002840F02D8151EA020614BFCF
:100B400001260026D20242EA5152C902BBF1460FE9
:100B500040EA010E42EAE07C08BF4FF0660B5EEA15
:100B60000C0CCDE90C1200F09781002E40F044816E
:100B70000D9A42F00042A0F2FE380D920020DDE90D
:100B80000C1206464FF0050C50E1ABF1580120293C
:100B90003FF66BAF01A050F821F000BF270D000811
:100BA0006B0A00086B0A00086B0A00086B0A000851
:100BB0006B0A00086B0A00086B0A00086B0A000841
:100BC000130B00086B0A0008AB0C0008BF0C0008F0
:100BD000130B0008130B0008130B00086B0A000826
:100BE000BF0C00086B0A00086B0A00086B0A0008BB
:100BF0006B0A0008610D0008270D00082D0D000884
:100C00006B0A00086B0A0008270C00086B0A000832
:100C1000270D00086B0A00086B0A0008270D000862
:100C200003995846EAE4002F109E3ADB39463046D5
:100C300005F074F83718002E3FF417AF4FF0000995
:100C40009DF84A3013F01002059200F04C820230F9
:100C500013F04003DDF84C80089318BF149BCDF8C7
:100C60001C80404418BFC018049B002B40F35682E0
:100C70009DF848201B1A04935307C2F3800B00F120
:100C80004D82500640F13D82B9F1000F07D0039923
:100C90004846D0470028C0F231820135D94630227B
:100CA00030E2304605F033F8C4E7109B8DF85C3035
:100CB0004FF000090DF15D0717AE0120C0E7079B5B
:100CC0001A0758BFC3F30019DDE9102354BF4FEAD8
:100CD00049194FF02B09002B06DA524263EB43030C
:100CE000CDE910234FF02D090DF175030093DDE9D7
:100CF000100117AB12AA04F00BFF0646002F0CDB05
:100D00009DF848200DF175039B1B6FF386129F42DF
:100D10008DF8482001D9FB1A1393002E3FF4A5AE9D
:100D20000DF1750756E04FF00009DDE71098002837
:100D300000F0D4810DF17503009312AA17AB0021C6
:100D400004F0E6FEBDF84A3003F0EF0343F4F0434D
:100D500043F010030646ADF84A304FF00009CDE7E6
:100D6000109B072A3FF681AEDFE802F00C04060C68
:100D700008080C0C1D7078E61D8076E6EA17C3E9BA
:100D8000005272E61D6070E64FF02D09CEE64FF07E
:100D90002B09CBE640F2FF76B0422AD10A43ABF1F1
:100DA00041031ED11A2B35BF492369234E216E21E1
:100DB00034BF462266228DF85C309DF848308DF8AD
:100DC0005D106FF386138DF85E208DF848300DF1BD
:100DD0005F0717AEB81BB9F1000F3FF431AF013018
:100DE0002EE7192B8BBF6E234E23612141211A461A
:100DF000E1E70026A6E6013849185241002AFADA4E
:100E0000CDE90C12B4E6490841EAC2715208B2F1C8
:100E1000333F404608F10108F5D20CFB02FEA1FB6E
:100E20000C1200F102087244013E012018F1020F79
:100E3000E9DB08B1CDE90C12B8F1000FDDE90C21B6
:100E40002DDCC8F10400A0F1200C08F11C08C24000
:100E500001FA08F821FA0CFCC1400BF0DF0042EA6D
:100E60000802472842EA0C023AD1F01C01DBB742E3
:100E70002BDAABF10203002F5FFA83FB7DDD9DF8D7
:100E80004800830607F1FF3777D43B1E18BF0123C4
:100E9000059307F101082DE04FF000086EE60232DD
:100EA00041F100010CA8CDE90C2104F002FEDDE9BE
:100EB0000C2108F1FF38013692184941002908F148
:100EC000FF38F9DACDE90C21B6E79DF848309806ED
:100ED000A7EB06074FD43B1E18BF0123059304E080
:100EE0000023BBF1660F0593D3D117EB06084FF033
:100EF000660B44D4B8F1100FA8BF4FF010089FED57
:100F0000B27B8DED0E7B10200B90DDE90E03B8F166
:100F1000000F37D1121841EB0301B1F1805F41D2CC
:100F2000CDE90C21079BBBF1660F03F0200240F0D6
:100F3000B480002E41DC30218DF85C10002A65D190
:100F4000002F40F3B2812E228DF85D2086B17242CF
:100F5000BA42A8BF3A469DF84A101392002AA7EB5E
:100F60000207D4BF0022012262F345118DF84A1016
:100F70000DF15E0839E00023B0E7002388E74FF069
:100F80000008BCE7400840EAC3705B08CDE90E03E7
:100F90000EA8CDE9082108F1FF3804F08AFDDDE94B
:100FA0000821B2E7520842EAC1720CA84908CDE90B
:100FB0000C21013604F07DFDB4E70DF15C080B99BE
:100FC000002909DD0BA90CA8079204F08AFD013E57
:100FD00008F8010B079AF2D113969AB9002F40F343
:100FE00062812E2108F8011B0026002F17DD0B9AC5
:100FF000002A14DD0BA90CA804F073FD013F08F8CA
:10100000010BF2E72E2208F8012BEDE72E228DF8D6
:101010005D20002EACD0002F99DC0DF15E08059B01
:10102000002B4ED1149747460BF0DF02452A23D1FF
:10103000002EBABF76422D232B23632EC8BF642116
:101040007B70D1BFBA1CB6FBF1F3FA1C03F1300080
:10105000C8BF01FB13664FF00A01C8BFB87087F81C
:1010600000B0B6FBF1F3174603F1300001FB136348
:10107000303307F8020B5370139B002B2CDC149BAE
:10108000002BD4BF002301239DF84A2063F386126E
:1010900000238DF84A203B709BE60BA90CA8079211
:1010A00004F01FFD079A8DF85C00302818BF06F188
:1010B000FF3612B9002F40F3F8802E228DF85D2004
:1010C00056E7474608F1FF3817F8012C302AF8D0C8
:1010D0002E2A08BF4746A7E70123D5E73C4F8146A4
:1010E0007E1F0520ACE51A0748BF0130B0E5104669
:1010F00009920399D0470028099A05DA1FB0BDE884
:10110000F08F2022DDF810B0594600290BF1FF3B8B
:10111000EDDC049BCDF810B02B445D1AB9F1000F43
:1011200005D003994846D0470028E7DB0135089BE6
:10113000002B7DD09DF94930002B28DBB3469BF86E
:101140000000A0F13003092BD9460BF1010B46D961
:101150009DF84A30AE1B99064E4407D44246002AF9
:1011600008F1FF3840DC079B33449E1A99F80000D1
:101170002E280AD10399D0470028BFDBB8F1000F11
:1011800006F1010636DC09F101094D463DE0B146A4
:1011900099F800007028C84609F101091AD1AE1B60
:1011A000149D46443544AB1B002B39DC03993B4668
:1011B0004246504604F0F2FC00289FDB3044049E77
:1011C000054606446AE000BF000000000000000879
:1011D000567500080399D0470028D9DA8EE703999D
:1011E000D0470028ABDA89E703993020D0470028A0
:1011F000B4DA83E703993020D04708F1FF38BBE722
:101200000399D0470028FFF679AF2878A0F1300382
:10121000092BA84605F10105F2D9A6EB0906BFE79F
:1012200003993020D0470028FFF668AF0136BAE7AF
:101230009DF84A30DA0601D41B0706D50399302001
:10124000D0470028FFF65AAF0135059B3BB1039903
:101250009DF84B00D0470028FFF650AF0135A84459
:1012600006E003993020D0470028FFF647AF01354C
:10127000A8EB0503002BF4DC03993B4632465046AD
:1012800004F08CFC0028FFF639AF284497E7039957
:101290002020D0470028FFF631AF0135731B002B0B
:1012A000F5DCFFF7E2BB1646B9E60DF15D08B6E6E0
:1012B0002DE9FF41464B02930023CDE90033454918
:1012C000454E464D464F0322184604F0EAFA05F013
:1012D000A5FA0A220023FEF7BBFF4FF003084FF4E4
:1012E000FA63B0FBF3F4B4FBF8F303EB4303E41A43
:1012F0004FF0FF324FF0FF33304603F05BFD04BB8D
:1013000038482D2104F075FB37482D2104F071FB7E
:1013100036482D2104F06DFB35482D2104F069FB82
:10132000304603F0BFFD2B683BB3324B2C60CDE958
:1013300001430094234627490322184604F0B1FADA
:101340001BE0012C1FD127486FF02C0104F051FB4A
:1013500025486FF02C0104F04CFB24486FF02C0161
:1013600004F047FB22486FF02C0104F042FB3046AA
:1013700003F098FD2B68012B28D100214FF4FA705F
:1013800004F08EF8A3E71748002104F032FB16485A
:10139000002104F02EFB1548002104F02AFB14481C
:1013A000002104F026FB304603F07CFD2B68022B65
:1013B000E3D00223012C08BF0F4A2B604FF000033B
:1013C000CDE900330CBF02920297B4E72346F1E760
:1013D00042730008706E0008B40000200000002076
:1013E0007A73000884040020680400204C04002064
:1013F0003004002055730008677300081FB5084BC0
:1014000002930023CDE9003306490322184604F075
:1014100048FA00214FF47A7004F042F8F9E700BF6F
:1014200089730008706E0008F0B589B00024764B0F
:1014300076490293032223462046CDE9004404F076
:1014400030FA734B71490094CDE9014303222346DE
:10145000204604F026FA6F4804F021FA034698B9B2
:101460006D4A0093CDE901326849012204F019FA6E
:101470006A4B02930023CDE90033012263491846E9
:1014800004F00FFA09B0F0BD654804F008FA03460D
:1014900008B9644AE5E7644804F001FA034608B96C
:1014A000624ADEE7624804F0FAF9034608B9614A85
:1014B000D7E7614804F0F3F9034608B95F4AD0E77B
:1014C0005F4804F0ECF9034608B95E4AC9E75E4894
:1014D00004F0E5F9034608B95C4AC2E75C4804F049
:1014E000DEF9034608B95B4ABBE70D230E22CDE9BE
:1014F000003248494E4B58480294012200F0CAF885
:101500005548322104F07FFA5348462104F07DFA11
:101510000A230B21CDE900310322474B3D494F48B7
:10152000029400F0B7F84D48322104F06CFA4B48B1
:10153000462104F06AFA08230920CDE9003001228F
:101540003B4B37494648029400F0A4F84448322106
:1015500004F059FA4248462104F057FA05250623BB
:101560000122CDE900533049354B3E48029400F04A
:1015700091F83C48322104F046FA3A48462104F0FA
:1015800044FA394B21490094CDE9014320462346D2
:10159000022204F086F9354B1C490094CDE9014341
:1015A00003222346204604F07CF900260027304B16
:1015B00030490094CDE90667CDE90354CDE90144F3
:1015C0004FF400622C4803F07DFB2C492A4805F0BB
:1015D00038F80423CDE90243CDE90667CDE900449C
:1015E000274B284904944FF40062274803F06AFB14
:1015F0002649254805F025F8254B0094CDE90143FF
:10160000032223463AE700BFA6730008706E000865
:10161000CE730008A06A0008E7730008D1740008C0
:10162000886A0008F6730008586A00080574000804
:10163000C86900081574000880690008257400084E
:10164000E069000835740008B069000845740008B6
:10165000986900085574000884040020680400207C
:101660004C04002030040020657400088F740008CA
:10167000FD130008000F0020A0010020B074000836
:10168000B112000880060020C8000020BB740008CA
:10169000C47400082DE9F04385B004461E469DF849
:1016A00038309DF830909DF83480A3730025FF23D7
:1016B000C4E9001208461746A66084F80C9084F826
:1016C0000D80E57325746582A382A56104F092FF05
:1016D000034650B9154A16490C93CDE90D32012243
:1016E00005B0BDE8F04304F0EBB8304604F082FFEB
:1016F000034608B90F4AEEE74946304604F0EFF8D2
:101700004146304604F0EBF82946204604F006F93D
:10171000094B07490397CDE9015300952B46032256
:10172000284604F0CDF805B0BDE8F083EB7400085E
:10173000786E000800750008167500082DE9F04F56
:101740008DB09B4602F004030193C2F3C203013340
:101750008407169D039206460F46059340F0E581E7
:10176000041D30B1072909D86FF01B000DB0BDE88A
:10177000F08F01F007073C1DC7F108070BF1FF339D
:1017800002934FF00408002304931A469A46C14678
:101790000EB1C4F800B00598002800F33181B548B7
:1017A000834503D3B4488345C0F02A810399A4EB51
:1017B000060E89074FEA9E0000F147810F2A00F2CA
:1017C000FC80002E00F04781C0B202F130010DEB29
:1017D000010C0CF8100C0498013004902DE1BAF1C2
:1017E000000F07D1252816D14FF0010A4FF0040849
:1017F000C14610E06C2800F296804B281DD847287F
:1018000000F2A680292863D8202804D02338D0F1FC
:10181000000A4AEB000A029911F8010F0291002810
:10182000DDD1A11BB1F5806F80F0C780002E40F0A4
:101830002581A7F10800084498E7A0F14C0CBCF101
:10184000200F00F2858001A151F82CF01718000834
:1018500051190008511900085119000851190008C0
:1018600051190008511900085119000851190008B0
:10187000511900085119000851190008571900089A
:101880005119000851190008511900085119000890
:101890005119000851190008511900085119000880
:1018A000791900085119000857190008571900083C
:1018B0007919000879190008791900081718000823
:1018C000571900089F190008511900081718000837
:1018D000A0F12A0C5FFA8CFC0EFA0CFC4FF6DA71C0
:1018E0001CEA010F97D11CF0625F45D11CF0010A80
:1018F00091D0013C4444C8F1000C04EA0C04002ED1
:1019000069D0A9EB060CA444BC453FF62DAF732863
:1019100070D0B9F1040F4DD155F8040B2060043498
:101920004FF0040977E7A0F16E0C5FFA8CFCBCF174
:101930000C0F0DD80EFA0CFC1CF0250F32D140F222
:1019400082411CEA010F06D11CF4825C7FF44EAF89
:101950004FF0000A5FE7029911F801CCBCF16C0F5F
:1019600025D111F802CCBCF16C0F4FF0000A1BD14D
:101970004FF00808C146BCE7073525F007050734D6
:10198000F5E8028924F0070436B106982044B842ED
:101990003FF6EAAEC4E9008908344FF0000A4FF080
:1019A000080825E74FF0000A4FF00408E2E74FF07F
:1019B000000A9EE7B9F1080F02D06FF01500D5E6D6
:1019C000073525F00705B5EC027B84ED007B083474
:1019D0004FF008091FE773280CD0B9F1040F01D1AB
:1019E00004359CE7B9F1080FE7D1073525F0070565
:1019F0000835ECE7059855F804BB01380590C7E6B3
:101A0000039989071AD5A4EB060E4FEA9E004FF002
:101A1000010CBEF5007FD0D20F2ACED8C6B1C0B21D
:101A2000BCF1000F3FF4D1AE02F130010DEB010C1F
:101A300060F07F000CF8100C01330132C6F1080190
:101A400004344FF0010E0691E5E64FF0000CE0E79C
:101A5000BCF1000F01D1019909B10137EDE75846FA
:101A6000CDE9062304F053F90237DDE906230744E4
:101A7000E3E700BF28680008007E0008019DC1F36D
:101A8000870C9DF810100DB90846294686F800C04D
:101A90007070F170B3702BB108A80025C6F1010C6D
:101AA000AA4208D108AD05EB0208C6F10109A84514
:101AB00011D1A01B5AE610F8011B11F0800F08D0BD
:101AC00004EB0C0EBE4501F07F013FF64DAE04F86D
:101AD000011B0135E4E71BB195F90020002A1FDB4B
:101AE000019AFAB92A78029356F822B0019B46F877
:101AF0002230584604F00BF9029B00F1010A04EB76
:101B000009025244BA4202933FF62EAE2A7804F8F4
:101B1000012B59462046524604F009F9029B5444D1
:101B20000135C4E74FF0000AE9E76FF00D001DE64C
:101B30000B6801330B60014B1B6818470400002041
:101B4000014B1860704700BF0400002007B50B462A
:101B5000002102460191034801A9FEF73DFD03B0B3
:101B60005DF804FB311B00082DE9F8434469056961
:101B7000C76840F26C73E1170135E41841F10001C8
:101B8000022D8CBF00230123E41A61F1000100291A
:101B9000064607F1FF3751DA6FF4C77020184FF48B
:101BA000C8724FF0000361F10001FEF701FB264B04
:101BB00003FB0044D6E90083B6684FEAE37C4FF0AC
:101BC0003C0E99466346C6FB0E93A9FB0EC60EFB60
:101BD0000366A30840F26D1E022D0EFB043302467D
:101BE0003B448CBF6FF00200092064270544B4FB1E
:101BF000F7F499201B1B154C45431CEB080C4FF0C8
:101C0000050005F10205B5FBF0F5A2FB04202B440D
:101C100004FB010146EBE87698180D4A41F10003F8
:101C200080180C4A63F10003A0FB020102FB0311C0
:101C300010EB0C0041EB0601BDE8F8834FF4C872CD
:101C400000232046B1E700BF70FEFFFFB13A02005B
:101C50009405F5FF805101004FF01002EFF311835E
:101C600082F31288BFF36F8F83F31188BFF36F8FF6
:101C7000024B034A1A600020704700BF5C0000203E
:101C800000093D00F8B507460C4629B9084D094E34
:101C9000761B3611B44200DBF8BD6B685B7923B16B
:101CA0002B6839461B682846984701341035F1E700
:101CB000B06E0008C06E0008014B53F8200070475A
:101CC000C86E0008054A00231370054A1360054BCF
:101CD000054A1A604FF47A7000F04EBA5D06002093
:101CE000A004002008000020D15B000870B5124B52
:101CF000BFF35B8F53E8005F6A1C43E800210029B3
:101D0000F8D1BFF35B8F2DB90C4C0D4E361B36113D
:101D1000B54200DB70BD237B53B123689B690BB1D7
:101D200020469847636804221968204600F06AF844
:101D300001351034ECE700BFA8040020B06E0008A5
:101D4000C06E0008F8B50C4F3D784DB90B4C0C4EE9
:101D5000FFF7CCFF361B3611B54202DB01233B7087
:101D6000F8BD63685B791BB1236820465B699847BF
:101D700001351034F0E700BF5D060020B06E0008AA
:101D8000C06E0008014B01221A7070475C060020EB
:101D90000C4BBFF35B8F53E8001F013143E8001287
:101DA000002AF8D1BFF35B8F58B1BFF35B8F064BAE
:101DB00053E8001F013943E80012002AF8D1BFF3AD
:101DC0005B8F7047A0040020A4040020054B10B5D1
:101DD0001B68044698470021A0602046BDE81040DB
:101DE000FFF750BF08000020044A054B9B1AB1EBD7
:101DF000D30F34BF52F8310000207047486E0008FE
:101E0000B06E0008054A4368801A001101300122B3
:101E1000187119605A71FFF7B5BF00BFB06E0008A6
:101E20000EB403B503AB014653F8042B04480193E9
:101E3000FEF7D2FB02B05DF804EB03B0704700BFC1
:101E4000F35B00082DE9F04F87B01C4601F0010359
:101E500005929DF84090BDF948A004930746884636
:101E600001F0020B01F0080603F0C1FE0246002853
:101E700040D037493846FFF7D3FF0546BBF1000F86
:101E800008D018F0440F37D1324922463846FFF7C0
:101E9000C7FF0544049B53B12F4B304953F8292009
:101EA0002F4B3846002A08BF1A46FFF7B9FF3EB14C
:101EB0002C4B2D4953F829203846FFF7B1FF064631
:101EC000BAF1000F12DB059B284C23B1284BB9F166
:101ED000040F08BF1C4651469DF84400FFF784FFDD
:101EE000214602463846FFF79BFF0644701907B0AB
:101EF000BDE8F08F0546C1E71E4B18680028C8D022
:101F00001D4B4FF47A781B68B4FBF3F44FF4616116
:101F1000B4FBF0F300FB134408FB04F44FF03C0C5B
:101F2000B3FBF1F201FB1231B4FBF0FEB1FBFCF3A9
:101F300000FB1E440CFB131108FB04F40091B4FBDE
:101F4000F0F40E49CDE901E43846FFF769FFA0E758
:101F50006D75000871750008D46E0008967500084C
:101F60005F750008E86E000899750008687500083C
:101F700064750008B0040020AC0400207A750008E5
:101F8000CA0605D48B064CBF02490349FFF748BF78
:101F9000704700BFA07500089F7500082DE9F84341
:101FA0000F460899DFF8BC90044616461D46FFF719
:101FB000E7FF4FF00008A84528DB76B33A782849B8
:101FC0002046FFF72DFF01256A0703D1254920464A
:101FD000FFF726FFB54225D27A5D21492046FFF75B
:101FE0001FFF0135102DEFD11F492046FFF718FFC5
:101FF000EEB91C492046FFF713FF0125B5422B46D9
:1020000017D318492046FFF70BFF1CE0494620462E
:10201000FFF706FF08F10108CDE714492046FFF756
:10202000FFFE012511492046FFF7FAFED9E70025FA
:102030002B46FA5C0E49A2F120035F2B28BF2E220B
:102040002046FFF7EDFE0135102D06D06B07D5D1E8
:1020500004492046FFF7E4FED0E7BDE8F88300BF5F
:10206000A2750008AA750008AC750008A8750008DC
:10207000AE75000838B5CB0705460C4603D5054AB2
:102080000549FFF7CDFE21462846BDE83840FFF759
:1020900077BF00BF5F750008967500082DE9FF4700
:1020A0000E46904636F8102B8B6812F4E07F0746F8
:1020B0000D46C2F3821931D00A784868C2F3C202D1
:1020C00048B32949401A40F3CF00CDE90120CDF8AB
:1020D0000090002241463846FFF7B4FE2B68C3F358
:1020E0004923824623BB6C88C4F3CB0474B32B68AA
:1020F000C3F349231E44102C254628BF1025314622
:10210000CDF8008053462A463846FFF747FF641B48
:102110002E44F0D117E04FF0FF30D6E70B68C3F341
:102120004923F3B94C88C4F3CB04A4B1CA46DEE713
:102130000E480F4933463A4603F069FC6C88C4F3F5
:10214000CB04002CD3D1B9F1000F04D04A4641464C
:102150003846FFF78FFF384604B0BDE8F04703F07C
:1021600070BD0448CA46E4E7486E0008F35B000807
:10217000D90500080F5C0008074A0021012390429E
:1021800006D8064A01B901231360054B1860704751
:1021900040085B000121F2E740420F00AC04002040
:1021A000B00400202DE9F04F85B002AFD7E90EA9A9
:1021B0003D6B04460E4693469846BAF1000F35D063
:1021C000C7F80490CDF8009010217A6B5346002098
:1021D000FFF7B4FA0146164A04F007040BF0070BA8
:1021E000E40002EA412244EA8B141443114A02EA51
:1021F000C54217350D4425F00705ADEB050D144319
:1022000002ADBAF1000F07D0CDF800907A6B5346BB
:1022100005F11000FFF792FA434622463146284660
:1022200003F01CFD0C37BD46BDE8F08F5146D2E7E8
:1022300000FE07000000F87FF8B5074F0D46044682
:102240004618B44201D12846F8BD386814F8011B7D
:1022500083685B689847F4E7CC040020014B0020BA
:1022600019607047C8040020014B024A1A60704789
:10227000CC040020106A0008024B034801221A70A7
:1022800003F0DFBC5F0600201C6F0008064B10B592
:1022900018680C46FFF710FD21460346BDE81040C4
:1022A00002480F22184700BFC80400201C6F000816
:1022B000014910220A60704710ED00E072B64040FC
:1022C00080F31188BFF36F8FBFF34F8F30BF62B6BB
:1022D000BFF36F8F704700BF2DE9F04780468CB089
:1022E0000D46002977D08B6805934B6804930B68E3
:1022F000039300243B4B3C49029301222346204692
:10230000CDE9004403F0C4FC6B6905932B69049389
:10231000EB680393354B34490094CDE90143012226
:102320002346204603F0B4FCEB690393304B2E495F
:102330000094CDE9014301222346204603F0A8FC86
:10234000DFF8B890DFF8A0A02F462646D7ED0B7A2D
:10235000FCEEE77AE31C0993CDED0A7AD7ED0A7A11
:10236000FCEEE77AA31C0793CDED087AD7ED097A46
:10237000FCEEE77A631C0593CDED067AD7ED087A7B
:10238000FCEEE77A0023CDE90294CDE90066CDEDBD
:10239000047A012251461846043403F079FC102CCB
:1023A00007F11007D2D12B6E0393124B0E49009602
:1023B000CDE9016300231846012203F069FCAB69F3
:1023C00003930D4B08490096CDE9016300230122D8
:1023D000184603F05DFC294640460CB0BDE8F047C6
:1023E00002F0B8BAEB750008886E00081A7600088B
:1023F000497600089B760008AA76000858760008FF
:1024000040B2002807DB044A4109012300F01F0005
:10241000834042F82130704700E100E040B20028DC
:10242000A8BF00F1604001F10101B8BF064B4FEABF
:102430000111ACBF00F5614000F00F00C9B2B4BF9C
:10244000195480F80013704714ED00E030BFFFF717
:10245000FDBF00BF144A08B5144B22F07F029A60FA
:10246000BFF34F8FBFF36F8FD3F8882022F4700231
:10247000C3F88820D3F8882042F4A002C3F888204B
:102480004FF04042C3F83422BFF34F8FBFF36F8F3A
:102490000023E1EE103A02F0DBFA03F083F800F0DB
:1024A000F9FB02F019FB00BF0000000800ED00E09E
:1024B0000A4A0B4993680968C3F88C100949C3F8A4
:1024C00088004B6843F080534B60002383F31188EE
:1024D000BFF36F8F9368D3F88C0070471C06002001
:1024E0002473000800ED00E022498A6882F8D1E0F8
:1024F0004FF030001044EFF3098C80E8F01F1EF01D
:10250000100F03D102F1900080EC108A102080F3AC
:102510001288BFF36F8F184F4FF00066CA698A6048
:102520003E6092F9D1E0D2F888000023C2F88830EA
:1025300080F311881EF0100F03D00023E1EE103A53
:1025400003E002F1900090EC108AEFF3148323F083
:10255000040383F31488BFF36F8F04B5104600F0B3
:10256000DDFBBDE8044002F1300090E8F01F8CF381
:10257000098870471C06002004ED00E01EF0040FDF
:102580000CBFEFF30880EFF30980816911F8021C9A
:102590000229FFD001B503F08BFB01BD017B10B513
:1025A00011F0020405D0816F40318167C16F40395D
:1025B000C16742F8203C029B42F81C3C039B42F856
:1025C000183C049B42F8143C0B494FF0807342F8CE
:1025D000043C00239C4221F0010142F8081CA2F1B6
:1025E0002002C0F888304FF6085308BF4FF47D43EF
:1025F0000265C0F8D03010BD875A000830B5017BA5
:10260000D0F8D030174A11F0020F03F0080503D1BB
:1026100090F8D140E40613D4546B44F080445463E2
:102620004DB943F00803C0F8D030836F403383675F
:10263000C36F403BC36741F002010173802030BD8E
:10264000516B21F0804151630DB94020F7E723F031
:102650000803C0F8D030836F403B8367C36F4033BB
:10266000C367F2E700EF00E00C4A03469068A0B1B0
:10267000D0F8D020806F12F0080F0CBF40228022CB
:1026800013F1160F04D0821A9A4205D8834203D25E
:10269000814228BF00207047002070471C060020A0
:1026A00008B514460D460022E1EE102AEFF314821D
:1026B00022F0040282F31488BFF36F8FBFF36F8F91
:1026C000084A906000F02AFB204685F30988002123
:1026D00063B681F31188BFF36F8F0022002303F0EC
:1026E000D2F900BF1C06002001B5EFF30580A0F170
:1026F00010004FEAC0000449014409C99847BDE8E9
:102700000140024908470000B86A00081127000884
:10271000044B9968D869884203D003494FF080522E
:102720000A6070471C06002004ED00E0F0B585B09B
:1027300000243B4B0293CDE90044234607460E4656
:1027400001223849204603F0C2FA374B9B6ADB046A
:1027500009D5364B33490094CDE901430122234684
:10276000204603F0B4FA304B9B6A1D0509D5304B67
:1027700002930023CDE900332A490122184603F0D1
:10278000A6FA294DAB6A9C051ED50024294B02935D
:10279000012223462046CDE90044224903F097FA5E
:1027A000AB6BAA6A10040FD50393234B1D49009409
:1027B000CDE9014301222346204603F088FA1FB1E8
:1027C000AB6A23F40043AB62174B9B6A590509D5EA
:1027D0001A4B02930023CDE9003312490122184617
:1027E00003F075FA104A936A13F4807312D0144BF5
:1027F00002930023CDE900330A490122184603F071
:1028000066FA094A936A002043F47F43936230706A
:1028100005B0F0BD926A9204F3D50A4A0292E9E744
:10282000D8760008886E000800ED00E0EE7600081B
:10283000FF760008127700082B7700084077000821
:102840005B770008737700081FB50024334B0293B1
:10285000CDE90044234632490122204603F037FAED
:10286000304B9B6A9B0109D52F4B2D490094CDE934
:10287000014301222346204603F029FA294B9B6A93
:10288000DC0109D5294B02930023CDE9003324490B
:102890000122184603F01BFA224B9B6A180309D544
:1028A000234B02930023CDE900331D490122184632
:1028B00003F00DFA1B4B9B6A590309D51D4B02937C
:1028C0000023CDE9003316490122184603F0FFF931
:1028D000144B9B6A9A0309D5174B02930023CDE949
:1028E00000330F490122184603F0F1F90D4B9B6AA2
:1028F000DB0309D5114B02930023CDE900330849CE
:102900000122184603F0E3F9064A936A6FEA03438B
:102910006FEA13430020936204B010BDA277000851
:10292000886E000800ED00E0BA770008CD77000857
:10293000E7770008057800082A780008447800083E
:102940002DE9F04385B00024494B0293CDE90044C2
:10295000234680468946204646491646012203F012
:10296000B6F9454B9B6AD80609D5444B41490094BA
:10297000CDE9014301222346204603F0A8F93E4B4E
:102980009B6A190709D53E4B02930023CDE900331A
:1029900038490122184603F09AF9374DAB6A9A0775
:1029A00036D46FF01507344B9B6ADD0709D5354BDC
:1029B00002930023CDE900332E490122184603F08B
:1029C00086F92D4B9B6A9C0609D52F4B0293002359
:1029D000CDE9003327490122184603F078F9264C47
:1029E000A36AD80636D4A36A990733D40020A36A11
:1029F000214A9B0642BF636A23F400536362936AD1
:102A000043F0FF0393620023337005B0BDE8F08309
:102A100000241E4B0293CDE90044234615490122B0
:102A2000204603F054F96F6BAB6A1B06B9D5184BFF
:102A300010490397CDE90143009423460122204623
:102A400003F045F9B9F1000FADD0AB6A23F0800374
:102A5000AB62A8E763681A05C8D541463846FFF758
:102A600003FE0028C2D080F309880220BFE700BF20
:102A70006F780008886E000800ED00E08578000897
:102A8000FF760008E678000873770008B878000839
:102A9000D07800082DE9F041694B5F68A2B0054687
:102AA000C7F30804002383F31188BFF36F8F02F08C
:102AB0007F40B0F17F4F0CD102F00C00082819D1F3
:102AC000604A61490093CDE901321846012203F0C2
:102AD000FEF8002635464FF00008E31E8DF81F80F3
:102AE000092B00F29480DFE803F00B888C8492922B
:102AF00092929290120746BF0D461E460126EAE7C3
:102B0000524B4F4F5049CDF80080CDE9018300234F
:102B10000122184603F0DBF8FC6A8DF81F8014F0E0
:102B2000020405D04A4BCDF80080CDE9018306E0D0
:102B3000FB6A002B0BDA474B0094CDE901430023DD
:102B400041490122184603F0C2F800242AE0FB6A3A
:102B50005B00FAD5404B3C490094CDE9014301228A
:102B60002346204603F0B3F8AB6933F8022C4DF648
:102B700002739A4209D097F828306BB30DF11F0207
:102B800001212846FFF7DCFE35E02B680393334B29
:102B90000094CDE90143204623462B49012203F04E
:102BA00096F82C689DF81F309BB96822294608A822
:102BB00003F0BDF80F9B002E3DD0C3F3080222B9ED
:102BC0006FEA53236FEA43230F9308A92046FFF7C8
:102BD00083FB22B0BDE8F08197F829302BB10DF1CD
:102BE0001F010120FFF7A2FD05E07B8D9BB2002BAA
:102BF000ABD0FFF729FE0446D4E70DF11F020021F8
:102C0000BFE70DF11F010020ECE7154B8BE7154ADC
:102C1000154B0D4917F4F87F18BF1346103CCDE94A
:102C20000334124B02930023CDE9003301221846EE
:102C300003F04DF889E723F4FF7323F00103C3E7A2
:102C400000ED00E033790008886E00085E79000826
:102C50007579000896790008A4790008C3790008FE
:102C6000DF7900081A79000805790008037A00085E
:102C7000024A536943F010035361704700ED00E0CE
:102C8000EFF30880EFF3098101B57246FFF702FF09
:102C900001BD00BF044800231021C21801335B2B83
:102CA00082F80013F9D1704700E100E0102080F3B2
:102CB000118808484FF40461401880F30988EFF345
:102CC00014800221084380F31488BFF36F8FFFF74D
:102CD000C1FB000080170020084B9B6883420BD18A
:102CE000EFF3058343B1064B5A6842F080525A60B5
:102CF0005A6A22F400425A6202F0F0BB1C0600201D
:102D000000ED00E0024B034A0348012100F08CB8BB
:102D100000000520000000202C6F000810B50446BC
:102D2000FFF76CFCA26F03460548D21AC0E90023E6
:102D3000BDE81040034B8360012100F07FB800BF65
:102D4000D004002000000B15F0B5284E85B00025FA
:102D50008D4215DA4468002C45D0D3B104F1FF3C14
:102D600014EA0C0F0FD0224B03950293002301228B
:102D7000CDE900331F49184602F0B9FF6FF0150284
:102D8000104605B0F0BD1F2CEDD907681CEA070FEF
:102D9000E9D1202C0768D0F808C05FFA82FE10D96C
:102DA000B4F1004F0FD8013CB4FA84F4C4F11F040D
:102DB0006400BEF1070F4CEA040C06D90E4B0392D7
:102DC000D3E70824F5E73E24F3E727F01F04144374
:102DD00044F01004C6F89820C6F89C404CF001045A
:102DE000C6F8A040013201350C30B1E700ED00E03B
:102DF0001A7A0008806E00083D7A0008044B05220C
:102E0000C3F89420BFF34F8FBFF36F8F704700BF9D
:102E100000ED00E0BFF35F8F024B0022C3F8942067
:102E2000704700BF00ED00E010B5034C012322788D
:102E3000FFF78AFF207010BD6006002008B5094A20
:102E400000231278FFF780FF10F1160F03D0064B16
:102E50000022072800DD08BDC3F89800C3F8A020B1
:102E60000130F6E76006002000ED00E01449086834
:102E7000082810B521D8FFF7CDFF124C4968002271
:102E8000904201F10C0105D10F4B1870FFF7B6FF0E
:102E9000002010BDC4F8982051F80C3C23F01F030B
:102EA000134343F01003C4F89C3051F8043C43F042
:102EB0000103C4F8A0300132E2E74FF0FF30E8E749
:102EC000386F000800ED00E060060020014B18603C
:102ED000704700BF0C0000202DE9F74FD0E9008BB0
:102EE000BBF1000F0E4632DA6548664A664C674F02
:102EF00018EB00004FF000036BF10001FDF758F9EB
:102F000024228A460546894604FB00840021304677
:102F100002F018FFEF194AF1000301935C4B98454A
:102F20004FF0FF337BEB030322DB281D49F1000147
:102F3000564F07220023FDF73BF9EF1949F1000333
:102F4000B2610193534A01990023384626E04D4A65
:102F50004D4C002340465946FDF72AF924220546E8
:102F6000894604FB00840021304602F0EBFEDCE7DA
:102F7000681D4AF1000107220023FDF719F9464BAD
:102F8000984502F106025BF10E0BB261DADA4348B2
:102F9000404A28184FF000034AF10001FDF708F9F4
:102FA0003F4901FB007148F6AC62B1FBF2F20A4402
:102FB00040F2B453B1FBF3F5521B4FF06408394DA6
:102FC000B1FBF5F5521B40F26D15B2FBF3F3B2FB0A
:102FD000F5F7B7FBF8FEAEEB03030B4405FB173325
:102FE0004FF4C87C00FB0C70992103EB830C0CF1AF
:102FF000020C03F10109BCFBF1F5694302314FF00A
:10300000050AB1FBFAF1A9EB010140F2F959CC45EF
:103010008CBF6FF0080C4FF0030C6544A0F26C708D
:10302000022D98BF0130B3F5997F05F1FF3517D315
:10303000A3F599734FF46162F361B4FBF2F302FB01
:1030400013443C22C6E90450B3603046B4FBF2F3AB
:1030500002FB1344F1607360346003B0BDE8F08F8D
:1030600017F0030F02D108FB1E773FB9B2F5B67F08
:103070008CBF002201223B331344DBE70122FAE735
:1030800081AEFEFF8051010080AEFEFF6CFA0A00A7
:1030900000BAFAFFB13A0200009EDA86BCBF08000F
:1030A0004FC5FDFFB03A02002DE9F8430D4F04462D
:1030B0000E4615464FF0010802F10409B44201DB47
:1030C000BDE8F8837A6908FA04F333EA020207D10B
:1030D0007B6155F834301BB159F8341020469847BD
:1030E0000134EBE700040140044A012311688340E6
:1030F0000B431360024B1856FFF782B900040140DE
:10310000907A00081F2806DC034901220B688240E0
:1031100023EA02030B6070470004014003292AD808
:10312000DFE801F0020E141F134B01229968824060
:1031300021EA02019960D96821EA0202DA60704747
:103140000D4B0122996882401143F3E70A4B01229B
:10315000D96882401143D960996821EA02029A60D5
:103160007047012303FA00F0034B9A6802439A6008
:10317000DA681043D860704700040140074B10B56F
:10318000044653F8300028B943F8341003EBC40365
:103190005A6010BD6FF00F00FBE700BFDC04002099
:1031A000034B002243F8302003EBC0035A60704702
:1031B000DC040020024B1868C0F38020704700BF79
:1031C00000100240184B18680B68072B10B5144606
:1031D00014D0082B09D88BB1013B072B0ED8DFE8A0
:1031E00003F01E0D14140D150D18582B0ED008D811
:1031F0004C2B0BD0502B09D0482B07D06FF08500FB
:1032000006E05C2B02D0602BF7E700202060002056
:1032100010BD02F022FE20B102F01FFEF6E70348C7
:10322000F4E76FF00400F3E75C0000200024F400F2
:1032300070B5384C384E00F089F801F0ADF8A3684D
:10324000364AC3F30313D35C20FA03F5B54202D820
:10325000334801F0EFFAFFF7ADFF012807D02368EC
:1032600043F480732360FFF7A5FF0128FBD1A36817
:1032700003F00C030C2B1AD1A36823F0F003A36016
:10328000FFF798FF012807D0236843F48073236079
:10329000FFF790FF0128FBD1A36823F0030343F05D
:1032A0000103A360A36803F00C03042BFAD1236885
:1032B00023F080732360E36823F4C00343F48003A6
:1032C000E36000F031F8236843F0807323602368E3
:1032D0009B01FCD5A36823F0F003A360A36843F02F
:1032E0000303A360A36803F00C030C2BFAD1B542CF
:1032F00002D90B4801F09EFA0A4B094A1A60A368EA
:1033000023F4E063A360A36823F46053A360002068
:1033100070BD00BF00100240FFB3C404E57C00088C
:1033200000B4C4045C000020054B0649DA68114073
:10333000054A0A43DA60DA6842F08072DA60704760
:10334000001002408C80FFF902140002064B9A6DB7
:1033500042F080529A659B6D82B003F080530193D6
:10336000019B02B0704700BF00100240044AD2F82F
:10337000903023F40043C2F890300020704700BF23
:1033800000100240024BD868C0F30020704700BF15
:10339000002800407FB50BAB05930393054B0293C8
:1033A0000023CDE9003301221846FEF7FBFE07B0EB
:1033B0005DF804FBAD7A000870B500238AB0CDE952
:1033C000073309932F4B304A19685B68C3F30354E2
:1033D000054604EB8404C3F3034000EB4400C0B291
:1033E00064300690C3F3003000EB8004C3F3032085
:1033F00000EB440001380590C3F3011000EB80009E
:1034000003F00F030A4003EB40030493130DC2F3D0
:10341000034003EB830300EB43030393C2F3023344
:1034200003EB8303C2F3032202EB4302C1F3021353
:1034300003EB830301F00F0101EB430101A80292AA
:10344000019102F02AFB04460E46284602F007FDD1
:103450000E4B0F4AE4180E4B66F10006A4FB034125
:10346000054603FB0611A4FB0004002305FB0141F4
:10347000FCF7EEFE0346002914BF4FF0FF3018465C
:103480000AB070BD002800407F7F3F0080BC92C71B
:1034900040420F0070B5056904462E68FFF78CFFA7
:1034A000114BD968C905024618D5CA215962532162
:1034B0005962D968C9B261F4C071D960996821F4C0
:1034C00080519960996821F480719960FF21596257
:1034D00026B10021AB6829602046B047034B4FF46A
:1034E00080225A6170BD00BF0028004000040140E6
:1034F0007FB54668036900221A6006F10C05374C57
:10350000204603F077F870B9354B02930023CDE9DC
:103510000033344901221846FFF73CFF6FF00405E1
:10352000284604B070BDA36829461B68204698470A
:1035300005460028E8D12C4A136843F480731360D1
:103540002A4BD3F8902042F48032C3F89020D3F86D
:10355000902022F48032C3F89020D3F8942042F0D7
:103560000102C3F89420D3F894209207FBD5D3F836
:1035700090201F4C22F4407242F40072C3F8902055
:10358000D3F8902042F40042C3F89020204600F087
:1035900051FF0028C2D106F11401204602F0EFFFCE
:1035A00002460028BAD1CA23636253236362A36828
:1035B00043F02003A360FF2363620E4B196841F4BC
:1035C00080211960996841F4802199600146292081
:1035D000FEF724FF2920FEF713FFA1E7F06800089B
:1035E000AD7A0008506E00080070004000100240E4
:1035F0000028004000040140044AD2F8903043F40F
:103600000043C2F890300020704700BF0010024015
:103610000B4B0169CA225A6253225A62DA68D2B24B
:1036200062F4C072DA609A6822F480529A609A68F2
:1036300022F480729A600020FF225A62086070476C
:10364000002800402DE9F043D0F8108091B01646D4
:103650000746FFF7B1FED8F8009075680446B9F147
:10366000000F64D13368F268C8F80030B368C8F856
:10367000083012F00108314E4BD10135384602F0C6
:10368000EEFB611902464346A1FB0601FCF7E0FD93
:1036900000232A4AFCF7DCFD294BC01841F1000148
:1036A000CDE9000107A96846FFF716FC099B8DF8D4
:1036B0000C300021089B234C8DF80D30CDE904110E
:1036C000079B8DF80E30CA270A9B029153268DF86E
:1036D000183067626662A368FF2523F48073A360D5
:1036E00002AA6562204602F0B1FE18BB67626662FC
:1036F000A36843F48073A360E368DBB263F4C07330
:10370000E360A36843F48053A360656211B0BDE831
:10371000F083384602F0A3FB4B460246A5FB0601A8
:10372000FCF796FD054A0023FCF792FDB8E76FF021
:103730000F00EBE76FF00400E8E700BF40420F0026
:1037400080436D380028004008B5084B08481860D1
:1037500002F050FF38B10748FFF7B8FB0548FEF705
:10376000EFF9002008BD6FF01200FBE768050020AC
:10377000106A0008793700080A2838B5074D044652
:1037800004D1286883680D215B689847286883689E
:10379000E1B25B689847204638BD00BF680500204D
:1037A00070B50546074C204602F024FF30B1A368EF
:1037B000294620461B68BDE8704018476FF012008C
:1037C00070BD00BFF068000808B5074A036958607B
:1037D0005368406843F4007353600C30FFF7E0FF18
:1037E00000EAE07008BD00BF00700040F7B5174662
:1037F000B7F5001F466802690C461D4624D101F04A
:103800000302043292000F23934043EA9103DAB299
:103810003249023251F82220190C02EA134391FA7C
:10382000A1F2B2FA82F2D340B2689A4209D120469C
:10383000FFF768FC2046FFF7B3FC00212046FFF7A6
:103840006DFC002003B0F0BDB7F5800F3FD02449D8
:103850002046FFF793FC00283CD1224AB66892E844
:1038600003006B4683E803001846FFF799FFC0B9D1
:1038700004F0030304339B000F229A4042EA9402AF
:10388000D3B29B0003F1804303F58033110C986899
:1038900020EA124091FAA1F2B2FA82F2964006436F
:1038A0009E60B5F1806F0ED0B5F1C06F0DD005F1FF
:1038B0007E435942594149002046FFF72FFC2046DC
:1038C000FFF712FCBDE70121F6E70321F4E76FF0F3
:1038D0008500B7E76FF00F00B4E700BF00000140BC
:1038E000AD600008C06E00082DE9F04701F1FF3C13
:1038F0008CB0BCF1050FBDF85050D0F804901446C0
:1039000098460FD9764B0391029300231846CDE9D0
:1039100000337449012202F00CFC6FF015000CB06A
:10392000BDE8F087D9F80000B0F1804F06D06E4BAB
:10393000984203D0B2F5803F00F2CF806B4B15F474
:10394000807A53F82C700ED0032902D9684B03916A
:10395000DAE7684B53F82C603CB9036A23EA0603A4
:1039600003620020DBE73E46F6E7D9F8083063BB88
:10397000013C036A05F0010536EA03034FEA4505F9
:1039800041D1B6F5807F00F09E8031D8102E00F036
:103990009C8029D8012E00F09A80042E08BF0123B4
:1039A00018BF08235449026AC95C02238B4022EAEB
:1039B00003038D401D43514B056253F82C304146A3
:1039C0009847D9F80030DC62CBE7102B02D108F120
:1039D000FF38CDE723F04002202A01D0402B7CD1D4
:1039E0004FEA58086408C4E7402E08BF0323D7E70E
:1039F000B6F5805F6DD0B6F5803F6CD0B6F5806FC0
:103A000008BF0523CCE704A802F0E9FD6023049376
:103A10000123BAF1000F17D006930995D9F80000D9
:103A2000CDF81C8004AA394600F082FD78B1344BF1
:103A3000029300231846CDE900332A49012202F0FF
:103A400078FB6FF004006AE705930895E6E7D9F87C
:103A500000301A68B7F5807F42F080021A602AD0E1
:103A60001ED8102F29D017D8012F04D0042F08BF3B
:103A7000012018BF0820234A115C234A03F11805CE
:103A8000105C6E580822824032436A50DC625A69E8
:103A900042F001025A6164E7402F08BF0320E8E7C3
:103AA000B7F5805F0BD0B7F5803F0AD0B7F5806FD0
:103AB00008BF0520DDE70420DDE70220DBE7062064
:103AC000D9E70720D7E704236CE702236AE700233E
:103AD00068E7062366E7072364E76FF085001EE7C3
:103AE0000C7B0008986E0008000C004078710008FC
:103AF000217B00086C710008117C000854710008DB
:103B0000487B0008237C00081A7C00082DE9F0435C
:103B10004668D0F810808BB006F10C07424D28465D
:103B200002F068FDB8B1D5F808903946D9F80030F0
:103B300028469847041E11DA3C4B03940293002355
:103B4000CDE900333A490122184602F0F2FA204644
:103B50000BB0BDE8F0836FF01204EDE7284602F0E9
:103B600049FDA8B1D9F80C30BBB105AA39462846A1
:103B70009847041E0EDB059B7069C8F8003005AA43
:103B8000002102F04BFC041E0ADA2A4B0394D5E70D
:103B90006FF01204284B0394D0E76FF05704F9E755
:103BA000059B00221979186800F0B0FB041EECDBBD
:103BB00005A802F00BFD7368ADF814300024B3685B
:103BC0003068069305A9CDE9074400F05BFC60B1BD
:103BD0001A4B0094CDE901432046234614490122A3
:103BE00002F0A7FA6FF00404B1E73368144A934275
:103BF0000FD002F5006293420BD002F5406293426F
:103C000007D002F58062934203D002F580629342AE
:103C100003D15A6C42F400425A641A6842F001021D
:103C20001A60002493E700BFF0680008727B000868
:103C3000986E0008B47B0008927B0008D27B0008D5
:103C4000002C014043681B6803F1080252E8002F72
:103C500042F0010203F1080040E800210029F3D1FD
:103C60000F4A93420FD0A2F5744293420BD002F553
:103C70008062934207D002F58062934203D002F53E
:103C80008062934203D15A6842F040025A6053E87E
:103C9000002F42F4807243E800210029F7D17047D9
:103CA0000038014043681B6803F1080252E8002F06
:103CB00022F0010203F1080040E800210029F3D1BD
:103CC0000F4A93420FD0A2F5744293420BD002F5F3
:103CD0008062934207D002F58062934203D002F5DE
:103CE0008062934203D15A6822F040025A6053E83E
:103CF000002F22F4807243E800210029F7D1704799
:103D0000003801402DE9F041036946685D68D6F846
:103D1000048088B007460C46284602F06BFC60B968
:103D2000244B02930023CDE9003323490122184696
:103D300002F078FA08B0BDE8F081AB68DB68002BD0
:103D4000EED007AA4146284698470028E8DB3568A8
:103D50001A4BDDF81CC09D424FEA540020D10026CA
:103D60004FF4807E314622463346ECFB0E01FCF7D1
:103D70006FFA134BA0F540729A420DD904943B6838
:103D80000393104B0C490096CDE9016301223346A1
:103D9000304602F047FACDE7002CCBD0E860C9E707
:103DA0002B68604423F40043B0FBF4F189B22B602C
:103DB000E960BFE72C7C0008A86E00080080004086
:103DC000FFFC0F005A7C00082DE9F04144680769A8
:103DD0004E4DD4F804807D6086B00646284602F039
:103DE00009FCA0B1AB6828461B68414698470546C8
:103DF00080B1474B029300231846CDE90033454973
:103E0000012202F00FFA284606B0BDE8F0816FF0FB
:103E10001205EEE7014605AAA06902F0FFFA0028A4
:103E2000F2DB059B2A461979186800F06FFA002822
:103E3000EADB2268136823F00103136052E8003FB5
:103E400043F00C0342E80035002DF7D12369022B23
:103E500051D0012B54D0002B41D1002221680B6896
:103E600023F0805323F4B0532A4313430B604B6871
:103E700023F440534B60237B2BB173681A6893681B
:103E800043F44073936039683046FFF73BFF227D6F
:103E900023681AB19A6842F008029A60627D1AB1EA
:103EA0005A6842F400425A60A27D1AB15A6842F43C
:103EB00080325A60E27D1AB15A6842F400325A6088
:103EC0001A6842F001021A60DA699102FCD5DA69D7
:103ED0005202FCD53046E3699847002094E70393EB
:103EE0000D4B0C490095CDE9015302222B46284683
:103EF00002F098F9B1E74FF480524FF48065ADE7D6
:103F00004FF480524FF4C065A8E700BFF068000886
:103F1000717C0008A86E0008917C00082DE9F0472C
:103F20000A794668D0F81080012A0D4623D0931EE6
:103F30005F425F41BF0295F805C0A979EC79BCF1F9
:103F4000020F96BF6E4B4FF4005E33F81CE002295F
:103F500014D0042960D09ABB012C3368DFF8A891F3
:103F600040F0BD804B4552D0012947D94FF00009A0
:103F70004FF4407A0EE04FF4C067DCE7C2BB012C7F
:103F80003368DFF884915AD14B454FF4407A4FF0B3
:103F9000805959D05B4A93420FD0A2F574429342A4
:103FA0000BD002F58062934207D002F58062934203
:103FB00003D002F58062934220D1012C4ED01DE047
:103FC000033A012CD2B20ED1012A17D94FF4407A0C
:103FD00033684D4A93422FD001290FD94FF48059AD
:103FE000002CD7D13AE0012A08D94FF0000AEFE7B8
:103FF000033A012CD2B204D0012A78D86FF08500A0
:104000006BE0012AFAD933683F4A9342AED14FF0B0
:1040100000094FF4407A17E0012CA2F1030314BF0A
:104020004FF0000A4FF4407A012BE7D9002AE5D17E
:104030003368354A9342E1D14FF4805904E04B454F
:1040400092464FF08059CBD11CF0FD0FD6D00129FC
:10405000D4D90429D2D02C4B002CAED11A682968AF
:1040600022F001021A601A6802F4C06297421FBF70
:104070001A6822F4C0623A431A605A6802F4405245
:1040800096451FBF5A6822F4405242EA0E025A6017
:104090001A6802F010224A451FBF1A6822F0102247
:1040A00042EA09021A609A6802F4407252451FBF40
:1040B0009A6822F4407242EA0A029A60D8F8003004
:1040C000994204D0FFF71EFE2B68C8F80030326812
:1040D000136843F0010313600020BDE8F0874B45EF
:1040E00009D001298AD94FF00009CA4678E7336818
:1040F000054A9342F7D14FF00009CA46A4E700BF32
:104100003C73000800380140008000404FF0E0237D
:1041100010B59A6919699869094B11F4803F0949EA
:1041200001D1824206D21A680C6822441A604FF00C
:10413000E02212691B680A681344181A10BD00BFF8
:104140000C06002018060020094B102283F82320BB
:10415000084B41F63F721A60074B002018604FF081
:10416000E0235A6198611A6942F007021A617047A8
:1041700000ED00E0180600200C06002008B5FFF74F
:10418000C5FF0C4B0C4A18681168084410600022E7
:104190001A600A4A13684FF4FA51C01AB0FBF1F0E2
:1041A00001FB0033136001F0E1FABDE80840FEF7BF
:1041B000AFBA00BF0C060020140600201006002035
:1041C0002DE9F041324E002953D0421C0AD14FF064
:1041D000E022136923F0010313614FF07F43336042
:1041E000BDE8F0813468012849DDB0F5036F49DC92
:1041F00000F1FF384FF01003EFF3118583F31288BD
:10420000BFF36F8FFFF782FF4FF0E02321499F69D3
:104210000B681844204B00221A60204B1B68C21AFE
:1042200033D44FF4FA5C0CFB082202F5F9521B1A46
:104230001F32B2FBFCF20CFB0233B3F5806F24D9C2
:10424000174A934228BF13464FF0E0223360966925
:10425000B742A7EB060703F1FF3338BF3F1953619D
:10426000384400239361086085F31188BFF36F8F92
:10427000B6E7431C3468B6D14FF40360B8E74FF09B
:104280000008B7E74FF40368B4E74FF48063DBE757
:1042900018060020140600200C060020100600203E
:1042A00000DCFF0010B54FF01003EFF3118483F32F
:1042B0001288BFF36F8FFFF729FF074B074A1B6870
:1042C00012689B1A034484F31188BFF36F8F4FF475
:1042D000FA50B3FBF0F010BD1406002010060020C9
:1042E00010B54FF01003EFF3118483F31288BFF37E
:1042F0006F8FFFF70BFF044B1B68184484F3118882
:10430000BFF36F8F10BD00BF140600202DE9F047EA
:10431000204F044600EBC1060025B44201D1002025
:1043200014E02268D10602F01F0911D4656845F037
:104330002005C2F3471AC2F343220A2A27D857F8A6
:104340002280B8F1000F11D16FF01200BDE8F087A4
:10435000B9F1100F08D0B9F1110FEAD165682B053A
:10436000E7D545F01005E4E73025E2E7404602F0E6
:1043700041F90028E8D04B462A460AF00F01404692
:1043800001F0ABFE002804F10804C6DADEE76FF0A6
:104390001500DBE7B4720008224B9A68D96812F066
:1043A0000C0205D00C2A15D101F00301012918D106
:1043B00019681D48090755BFD3F894101968C1F34F
:1043C0000321C1F3031150F8210012B10C2A09D0C6
:1043D00000207047042A22D0082A144818BF002061
:1043E00070470020DA6802F00302022A15D00F4954
:1043F000032A08BF0846D968DA68C2F30622424396
:10440000D868C0F34160C1F30211013001314000AE
:10441000B2FBF1F2B2FBF0F070470548EBE704485D
:10442000704700BF00100240E072000800127A00DE
:104430000024F400CA2310B54362532343620446A8
:1044400002F076F8012818D000234FF6FF7223609F
:10445000626142F201126260A26802F00702A26089
:10446000074A2261E3612362E362E3636364A36456
:104470002364E3646FF08003E360FF23636210BD95
:10448000FF007F00274A0368904230B50A888C6895
:1044900032D0B0F1804F2FD0234DA8422CD005F55B
:1044A0008065A84228D005F58065A84224D005F58E
:1044B0009435A84220D005F54065A84221D1CD68A9
:1044C00023F440732B430360164BC462984282620C
:1044D0000FD003F5006398420BD003F54063984278
:1044E00007D003F58063984203D003F580639842B8
:1044F00011D10B6903630EE04D6823F070032B4369
:10450000DDE70A4DA842DAD005F58065A842D6D08D
:104510000360C4628262436943F001034361002087
:1045200030BD00BF002C01400004004000440140A9
:10453000B1F5805F30B500F011810AD8102900F084
:104540008680B1F5807F00F0C68001293DD0012032
:1045500030BDB1F5803F00F03681B1F5801FF6D156
:10456000036A146823F480130362036A416D21F027
:10457000807121F4E04141EA0424116923F400131D
:1045800043EA0153516823F4801343EA0153A849D5
:1045900088420FD001F5006188420BD001F54061DF
:1045A000884207D001F58061884203D001F580611F
:1045B000884206D14168956921F4802141EA85212C
:1045C0004160D2684465C2653EE0036A156823F025
:1045D00001030362036A4168846924F4803424F08F
:1045E00073042C43156923F002032B43556823F011
:1045F00001032B438E4DA8420FD005F50065A8425C
:104600000BD005F54065A84207D005F58065A842A6
:1046100003D005F58065A84212D1556923F008033F
:1046200043EA8503956823F0040343EA850395690B
:1046300021F480712943D56921F4007141EA4501D3
:10464000D2684160846142630362002080E7036AAC
:10465000156823F010030362036A4168846924F03B
:10466000807424F4E64444EA0524156923F0200309
:1046700043EA0513556823F0100343EA05136C4D14
:10468000A8420FD005F50065A8420BD005F540659E
:10469000A84207D005F58065A84203D005F58065DE
:1046A000A84213D1556923F0800343EA8513956826
:1046B00023F0400343EA8513956921F4806141EAC0
:1046C0008501D56921F4006141EAC501D2684160E4
:1046D00084618263B8E7036A156823F48073036218
:1046E000036A4168C46924F4803424F073042C43C1
:1046F000156923F4007343EA0523556823F4807396
:1047000043EA05234A4DA8420FD005F50065A842AB
:104710000BD005F54065A84207D005F58065A84295
:1047200003D005F58065A84213D1556923F40063D1
:1047300043EA8523956823F4806343EA85239569DA
:1047400021F4805141EA0511D56921F4005141EA73
:104750004511D2684160C461C26375E7036A156898
:1047600023F480530362036A4468C16921F08071B5
:1047700021F4E64141EA0521156923F4005343EA97
:104780000533556823F4805343EA0533284DA84286
:104790000FD005F50065A8420BD005F54065A8428D
:1047A00007D005F58065A84203D005F58065A842CD
:1047B00004D1956924F4804444EA8514D2684460A5
:1047C000C161026440E7036A146823F48033036222
:1047D000036A416D21F4803121F070010C431169AD
:1047E00023F4003343EA0143516823F4803343EA5E
:1047F00001430F4988420FD001F5006188420BD078
:1048000001F54061884207D001F58061884203D0FC
:1048100001F58061884206D14168956921F48031B3
:1048200041EA052141604465D268816D82650BE7EC
:10483000002C01401F4B421E9A4201D901207047B3
:104840001D4B1B6803F4C063B3F5007F0FD11B4BF6
:1048500098421AD81A4B984227D81A4B984226D811
:10486000194B984294BF00230123002011E0174BFD
:1048700098420CD8A3F5F403A3F59053984214D8AA
:10488000134B984213D8134BEBE70423EDE70023B7
:10489000012011490A6822F007021A430A600A68D7
:1048A00002F007029342C9D170470323DDE70223D8
:1048B000DBE700BFFFB3C404007000400090D003EA
:1048C000006CDC020048E8010024F40080BA8C018E
:1048D000001BB700808D5B00002002400E4B70B5BE
:1048E00053F82040013053F82060A64200D870BD34
:1048F000D4E900352846984765B1EB6830B1002807
:10490000B8BF4042FF28A8BFFF2018705A7842F075
:1049100001025A700834E8E710730008014B9868E8
:10492000743070471C0600201FB50446FDF70AFAD4
:10493000064B029300231846CDE9003304490122B7
:1049400001F062FE204601F06FFE00BFF57C00081A
:10495000886E00082DE9F041064686B00F464FF0FC
:104960001003EFF3118883F31288BFF36F8F00F009
:10497000AFFD042E96BF224B224B53F8263022491E
:1049800003960024CDE90434204B0094CDE9014383
:10499000054623460122204601F036FE6FB1FB6931
:1049A000C3F308034BB11A4B17490094CDE90143F7
:1049B00001222346204601F027FE2DB1284601F0B2
:1049C00043FE08B1037803B91248134B0293002346
:1049D000CDE90350CDE90033184601220A4901F020
:1049E00013FE39463046FFF79FFF88F31188BFF367
:1049F0006F8F284606B0BDE8F041FEF76DB900BFE5
:104A000028730008047D0008886E00081A7D0008DD
:104A1000427D0008127D0008637D000808B50A4B3E
:104A2000012202201A70FFF759FF00F02BFF03202C
:104A3000FFF754FF00F072F9FCF7F6FC034A137B12
:104A400023F00103137308BD61060020500300200A
:104A500008B50348034A0021121A01F0EEFD08BD13
:104A6000C80000206406002070B5164E164D174988
:104A7000D82386B003FB006601220023CDE904237E
:104A80000F22CDE9023201931C2303FB005504469B
:104A90004FF4C07000FB04110D4B00954FF4A07251
:104AA000304600F0C3F8737B0A4AEE6023F004033B
:104AB00073734FF4086304FB033313442C756B606A
:104AC00006B070BD780200201C06002000200020E7
:104AD0004D6600088017002080B52D4BBCB083F3D5
:104AE00008882C4D2C4E6B692C4F43F40073002426
:104AF0006B61F02385F82230EC772C766C76AC76FF
:104B000085F820406B6A43F4E0236B62FEF7B0F84F
:104B1000FDF7CEFB4FF0FF33AB62EB62FEF7A6F979
:104B2000FEF7F0F8FDF7CEF840F20113ADF82430AF
:104B300006ABB360CDE92444279401F05AFD20462A
:104B4000FFF7CCFE0120164DFFF7C8FE00F01AFC5F
:104B5000144BF5610593012313490094CDE90343F8
:104B60004FF480523B46CDE90144284600F05EF800
:104B70006A7B064622F0040228466A7301F0D6FDDD
:104B80002046FFF771FF3A4631462846FDF788FD7B
:104B90000020002000ED00E01C0600201D4A000857
:104BA00050030020E67400088021002070B50E4BF1
:104BB0000E4CA34201D3002070BDD3E9030141EAAA
:104BC000000212F003020BD19D685A61AA4201D182
:104BD0001C33EEE75E690E60013259610144F5E76E
:104BE0006FF01500E8E700BFB4000020B40000201B
:104BF0004FF01003EFF3118183F31288BFF36F8F2F
:104C0000094AD36A834207D11B6FD36281F31188AB
:104C1000BFF36F8F70471346002BF7D01A6F824295
:104C2000F9D1026F1A67F1E71C0600202DE9F04F59
:104C300085B0DDE90EA9129E067304264673119E07
:104C40008673D61D26F00706DDF8408000F1580572
:104C500006F1400BC0E916550446002501F140025B
:104C60008B44C0E91E26C0E906558560C573C0F8AF
:104C700080501F46CDE90198CDF800A05A46FDF7B7
:104C80008DFCC4E9187AC4E91A9865654FF01003E1
:104C9000EFF3118283F31288BFF36F8F084BD96A49
:104CA0002167DC6282F31188BFF36F8F9B680BB1C1
:104CB000D3F88430C4F88430584605B0BDE8F08F8E
:104CC0001C060020F0B587B000250595109D0495C1
:104CD0000F9D03950E9D0295DDE912760D9D0195C0
:104CE0000C9D00950446FFF7A1FFB6F1FF3F08BFFA
:104CF000B7F1FF3F05D056EA070305D1204600F083
:104D0000C1FA204607B0F0BD03493A46334604F1E4
:104D1000180000F0ADFCF4E799660008F0B5224CED
:104D2000224D87B02646AE4204F130040BD300F08A
:104D3000F9FA1D4C1E4F0A26AC4220D307B0BDE83D
:104D4000F04000F003BB54F8043C059354F8103CC9
:104D5000049354F8143C039354F8183C029354F809
:104D60001C3C019354F8203C009354E90A2354E975
:104D70000C01FFF75BFF54F8303C5E65D2E7626AD6
:104D8000531C09D022EAE27282FB062352EA030195
:104D9000206803D100F076FA3034CDE73946183078
:104DA00000F066FCF8E700BFB4000020B40000206B
:104DB000996600082DE9F341044617461E464FF058
:104DC0001003EFF3118883F31288BFF36F8FC3686A
:104DD000324A7BB180689168884219D057EA06034D
:104DE00018D188F31188BFF36F8F6FF00F0002B0F6
:104DF000BDE8F081916891F90E1021610133E36003
:104E00009368A36088F31188BFF36F8F0020EEE7EB
:104E10002169F2E791F90E1090F90E309942A8BF7E
:104E200019466FF07E029142B8BF11468B422EDDCB
:104E300001F018FC0546CDE90076194822464146A6
:104E400000F0B4F90028E1D04FF01003EFF3118621
:104E500083F31288BFF36F8F23682169A3420AD0BE
:104E60004BB193F90E309942A8BF19466FF07E03FB
:104E70009942B8BF1946A06801F0F4FB48B945B99A
:104E800086F31188BFF36F8F6FF00A00AFE700253C
:104E9000D1E70348314600F0E3F9F5E71C060020AE
:104EA0006206002038B58368044673B31A4A9268D4
:104EB00093422DD1C368012B03D9013BC36000206D
:104EC00038BD4FF01003EFF3118583F31288BFF361
:104ED0006F8F0169806801F0C5FB204601F036FC48
:104EE000A06060B190F90E2022610022C0F88C20F1
:104EF00001F01CFC0948294600F0B2F9DFE7E06048
:104F000085F31188BFF36F8FD9E76FF01500D7E7EE
:104F10004FF0FF30D4E700BF1C06002062060020DF
:104F200038B5074D2C6854B1FFF7BCF9054B044464
:104F30001C6128680021BDE8384001F04FBC38BD35
:104F4000540600201C06002038B50D4D2B4653F8A2
:104F5000204F9C4200D004B9EC68AB6838B95A7B4A
:104F6000D20604D1A26912B9DA897F2A05D89C42F7
:104F700002D02046FFF7D4FF2346EB6138BD00BFC7
:104F80001C06002070B590F90D20437B002A0146D5
:104F900004DA03F07F03437301F06CFB4B7B154A8B
:104FA00063F07F0310464B7350F8203F546A8342EE
:104FB00008BF002323B9C1E90004216051620CE05D
:104FC00091F90E5093F90E60B5420ED0AE420CDD51
:104FD0005868C1E90030016059609068431A58422E
:104FE000BDE870405841FFF7AFBF9C42E3D01B685B
:104FF000E0E700BF1C06002070B490F90D30427B42
:10500000002B29DBD30627D183692BBB134962F020
:105010007F0242730A4652F8204F944218BF23463B
:105020004C6A23B9C0E90024206048620CE090F982
:105030000E5093F90E60B5420AD0AE4208DD5A68B0
:10504000C0E900321060586070BC0020FFF77CBFE0
:10505000A342E7D01B68E4E770BC70471C06002041
:1050600008B590F90D20437B002A014604DA03F0CD
:105070007F03437301F0FEFA044B9868431A5842C9
:105080005841BDE80840FFF75FBF00BF1C06002085
:105090002DE9F041064615461C464FF01003EFF38C
:1050A000118783F31288BFF36F8F01F017FB87F32B
:1050B0001188BFF36F8FB4F1FF3F08BFB5F1FF3F19
:1050C00008D02A46234606F118000349BDE8F041FE
:1050D00000F0CEBABDE8F0819966000810B54FF037
:1050E0001003EFF3118483F31288BFF36F8F0A2349
:1050F000002800FB03F302DD022BB8BF0223074A9E
:105100000020106106480360064B90681960FFF7A5
:1051100007FF84F31188BFF36F8F10BD1C060020BA
:10512000540600205006002038B54FF01003EFF36E
:10513000118583F31288BFF36F8F174B174A9C6852
:1051400011688C4207D12046FFF7EAFE85F31188EB
:10515000BFF36F8F38BD00211160114A1268C2B1D0
:10516000E2897F2A15D8627BD20612D10D4A94F9C2
:105170000E10126891420CDB0B4A944209D01A6956
:10518000824203DC2046FFF7FDFEDCE7121A1A61BB
:10519000DCE70022FBE700BF1C0600204C060020D5
:1051A00054060020500600207802002010B5074B5E
:1051B0009868074B0C4618601146DDE90223FFF79B
:1051C00067FF2046BDE81040FDF772B91C060020BD
:1051D0004C060020F8B504464FF01003EFF311869B
:1051E00083F31288BFF36F8F437BDA0649B219D17C
:1051F0008569BDB903F07F03437301F03BFA437B3C
:10520000164A817363F07F034373134653F8200FEC
:10521000984218BF0546506A5DB9C4E90030046081
:10522000546211E0A173002086F31188BFF36F8FE1
:10523000F8BD95F90E70B9420BD08F4209DD6B684D
:10524000C4E900531C606C600120FFF77DFE012063
:10525000EAE7A842E1D02D68DEE700BF1C06002087
:1052600049B9EFF3058030B9054BDA699B689A427A
:1052700001D0FDF71DB981F31188BFF36F8F70471F
:105280001C06002010B54FF01002EFF3118482F3DA
:105290001288BFF36F8F427B510704D484F31188C7
:1052A000BFF36F8F10BD22F004024273FFF7A4FE1C
:1052B00021460248BDE81040FFF7D2BF6206002039
:1052C00070B50446183001F073FA4FF01003EFF395
:1052D000118683F31288BFF36F8F94F90D20637BDF
:1052E000002A05DA03F07F036373204601F0C2F958
:1052F0000B4D637BA86843F010036373031B584294
:105300005841FFF721FE86F31188BFF36F8FAB681A
:10531000A34203D1BDE8704001F040BA70BD00BFA8
:105320001C0600204FF01003EFF3118183F3128865
:10533000BFF36F8F044B9A68D37B013BD37381F328
:105340001188BFF36F8F70471C06002010B54FF017
:105350001003EFF3118483F31288BFF36F8F084BB0
:105360009A68D37B0133D3730020FFF7EDFD84F3FC
:105370001188BFF36F8FBDE8104001F00FBA00BF76
:105380001C060020044B002103F120020846C3E95B
:105390000822FFF7A3BE00BF1C060020F8B54FF09F
:1053A0001003EFF3118583F31288BFF36F8F194950
:1053B0008868437B03F07F03437301F05BF9437B11
:1053C0000A4663F07F03437352F8203F4C6A9342CE
:1053D00008BF002323B9C0E90024206048620CE024
:1053E00090F90E6093F90E70BE420ED0B7420CDDFC
:1053F0005A68C0E90032106058600120FFF7A4FD30
:105400002846BDE8F840FDF753B8A342E3D01B6837
:10541000E0E700BF1C06002050EA01032DE9F0413F
:1054200005460E4603D1FFF7B9FF00202CE0831C90
:1054300071F1FF332ADB01F0EDF944194FF010034D
:10544000EFF3118883F31288BFF36F8F114F124B64
:10545000B8681860FFF704FEB86810492A4633465A
:10546000183000F005F9BA68537B43F0100353730A
:105470004046FDF71DF801F0CDF9201A63EB030358
:10548000012873F10003D0DBBDE8F0816FF0010467
:10549000241AD3E71C0600204C0600209966000859
:1054A000B1F1FF3F08BFB0F1FF3F08B506D1074B90
:1054B0009868FFF705FF4FF0FF3008BDFFF7ACFF1E
:1054C0000A220023C117FAF7C3FEF6E71C060020E4
:1054D000014B9868704700BF1C0600202DE9F04181
:1054E00004464FF01003EFF3118683F31288BFF3E5
:1054F0006F8F037BD9070BD586F31188BFF36F8FAE
:10550000404080F311884FF0040002DFBDE8F081D5
:10551000437B1A0704D586F31188BFF36F8FF5E735
:1055200023F0200242F00801D20923D14173A3687D
:1055300013B1204601F0A6F804F1180001F038F983
:1055400004F158074FF00008A56DBD4200D0CDB959
:105550000120FFF7F9FC2046FFF74AFB104B9B6840
:10556000A342D8D1EFF30583002BD4D13046FCF70A
:105570009FFFD0E703F05F0343F00803437301F09C
:1055800079F8D4E7284601F07DF805F1180001F01C
:105590000FF9C5F88C802846FFF72EFDD4E700BF31
:1055A0001C06002008B50648064A0749121A01F0F1
:1055B00046F8BDE80840054A0549064801F03FB8ED
:1055C00000000020C8000020007E0008000000004D
:1055D000007E000800000020034B1B680BB9FEF79B
:1055E00061BE0020704700BF58060020114B10B567
:1055F0001C689C420AD1FFF7EFFF6FF000400E4B92
:105600001B6913B19842A8BF184610BDFFF7E4FF0D
:10561000002CF2D0D4E904321B1A62EBE072B3F131
:10562000004F72F10001E8DA002AACBF18460020F2
:10563000E5E700BF600000201C0600200B4A03685D
:105640005268904230B509D043B1D3E90421D0E982
:105650000445121941EB0501C3E9042142681360B6
:105660005A600023C0E9003330BD00BF6000002055
:10567000B3F1FF3F08BFB2F1FF3FF8B504461D4646
:10568000164661D081604FF01003EFF3118783F36A
:105690001288BFF36F8F013275F1FF3324DA30497E
:1056A000D1E900206FF001039B1A4FF0FF3262EB4B
:1056B00000009E1B60EB0500012E70F1000301DA73
:1056C00001260020C4E90460264ED6F800C07568A3
:1056D000B44508BF4FF0000CBCF1000F0DD1C4E978
:1056E00000652C6074601CE0FFF776FF013645F121
:1056F0000005361845EBE070E4E7DCE90420D4E966
:105700000431934271EB000E1FDAD21ADCF8043038
:1057100060EB0100CCE90420C4E900C31C60CCF8B4
:1057200004403368B3420BD09C4209D1FFF75EFFBF
:1057300018B10D4B1B69834202D00021FEF740FDDA
:1057400087F31188BFF36F8FF8BD9B1A61EB0001DF
:10575000AC45C4E90431C2D0DCF800C0BCE700BFEE
:1057600028040020600000201C0600202DE9F843DA
:105770000546FFF7D9FC4FF01003EFF3118483F3D4
:105780001288BFF36F8F244EDFF894803560234D6D
:10579000D8F8000032684045D5E9001E4FEAE277AC
:1057A0000BD050B1D0E9043C9A4277EB0C0916DAE1
:1057B0009B1A6CEB070CC0E9043C51184EEB070731
:1057C000C5E9001700253560FFF710FF2946FEF7F1
:1057D000F7FC84F31188BFF36F8FBDE8F883591885
:1057E0004EEBE377D31A336000220023C0E9042391
:1057F000C5E90017FFF722FF84F31188BFF36F8F0D
:10580000836898474FF01003EFF3118483F31288F5
:10581000BFF36F8FBCE700BF5806002028040020AC
:105820006000002010B54FF01003EFF3118483F3F4
:105830001288BFF36F8FFEF735FD054AD2E90031BC
:10584000C01841F1000184F31188BFF36F8F10BDC0
:105850002804002038B5044678B1FEF741FD05461E
:105860000648074AA4FB00010023FAF7F1FC0446AE
:10587000FEF736FD431BA342FAD338BD00B4C4047F
:1058800040420F00024A0349034800F0EFB800BF4E
:10589000A1750008C87D0008D67D0008704700F09B
:1058A000A9BE7FB50BAB059303930A9B029300231C
:1058B000CDE900331846FCF775FC07B05DF804FB32
:1058C0007FB50BAB059303930A9B02930023CDE9AD
:1058D00000331846FCF766FC07B05DF804FB30B4F3
:1058E00004698568012303FA01F2236823EA0203AD
:1058F00023604FF400322B6830BC1847012303FAB1
:1059000001F103691B68194218BF82F0010212B14C
:105910008368DB68184783681B69FBE710B504469A
:105920000A46017B8068FFF7E9FF617BA0680022DF
:10593000BDE81040FFF7E2BF836970B504460D462D
:1059400016464BB1C37B8B4206D0C1730021FFF7D3
:10595000E5FFA069FFF77EFFA37B23B1012D25D0D2
:10596000022D08BF0125A18A8E4221DD0EB2002E34
:10597000638AB8BF7642B6B233B12EB1CA1A724347
:1059800092FBF1F213449EB2022D16D0032D20D0CB
:10599000012D4FF00001204626D1FFF7BFFF002266
:1059A00031462046FAF7C0FD257470BD0225DAE7BE
:1059B0004B429E42B8BF1EB2D9E701212046FFF7F5
:1059C000ADFF012231462046FAF7AEFD4FF0FF351C
:1059D000EAE701212046FFF7A1FFA18A0022204625
:1059E000FAF7A2FD0025DFE7FFF798FF0022114636
:1059F000F5E70A1E02DD0121FFF79EBF1EBF5242DE
:105A000012B20221F8E741827047818270472DE986
:105A1000F04707460E4690461D460BB3AC78EA7831
:105A200093F801A01B78144404EB83042C444FF03A
:105A30000009D14508D36A6805F108034146384694
:105A4000B446BDE8F047604714F8013B45F82340F1
:105A5000204600F05CF90130044409F10109E8E74F
:105A60006FF01500BDE8F087002070470FB407B550
:105A700004A951F8040B0191FCF768F803B05DF834
:105A800004EB04B07047044608B5084611461A46B0
:105A9000A047FFF71DFDFDF71FF938B5FCF764F8C7
:105AA00005460C46FEF73AFF0023036021462846D0
:105AB00038BDD0E9002130B54FF03333A2FB0324C9
:105AC000D51843EB0405A1FB0313521844EB030460
